{
  "_format": "hh-sol-artifact-1",
  "contractName": "Ante_alETHSupplyTest",
  "sourceName": "contracts/Ante_alETHSupplyTest.sol",
  "abi": [
    {
      "inputs": [],
      "stateMutability": "nonpayable",
      "type": "constructor"
    },
    {
      "inputs": [],
      "name": "AlchemistAddr",
      "outputs": [
        {
          "internalType": "address",
          "name": "",
          "type": "address"
        }
      ],
      "stateMutability": "view",
      "type": "function"
    },
    {
      "inputs": [],
      "name": "AlchemistYVAAddr",
      "outputs": [
        {
          "internalType": "address",
          "name": "",
          "type": "address"
        }
      ],
      "stateMutability": "view",
      "type": "function"
    },
    {
      "inputs": [],
      "name": "CheckAlchemistVL",
      "outputs": [
        {
          "internalType": "uint256",
          "name": "",
          "type": "uint256"
        }
      ],
      "stateMutability": "view",
      "type": "function"
    },
    {
      "inputs": [],
      "name": "CheckAlchemistYVAVL",
      "outputs": [
        {
          "internalType": "uint256",
          "name": "",
          "type": "uint256"
        }
      ],
      "stateMutability": "view",
      "type": "function"
    },
    {
      "inputs": [],
      "name": "CheckTransmuterBYVAVL",
      "outputs": [
        {
          "internalType": "uint256",
          "name": "",
          "type": "uint256"
        }
      ],
      "stateMutability": "view",
      "type": "function"
    },
    {
      "inputs": [],
      "name": "CheckTransmuterVL",
      "outputs": [
        {
          "internalType": "uint256",
          "name": "",
          "type": "uint256"
        }
      ],
      "stateMutability": "view",
      "type": "function"
    },
    {
      "inputs": [],
      "name": "TransmuterAddr",
      "outputs": [
        {
          "internalType": "address",
          "name": "",
          "type": "address"
        }
      ],
      "stateMutability": "view",
      "type": "function"
    },
    {
      "inputs": [],
      "name": "TransmuterYVAddr",
      "outputs": [
        {
          "internalType": "address",
          "name": "",
          "type": "address"
        }
      ],
      "stateMutability": "view",
      "type": "function"
    },
    {
      "inputs": [],
      "name": "WETHAddr",
      "outputs": [
        {
          "internalType": "address",
          "name": "",
          "type": "address"
        }
      ],
      "stateMutability": "view",
      "type": "function"
    },
    {
      "inputs": [],
      "name": "WETHToken",
      "outputs": [
        {
          "internalType": "contract IERC20",
          "name": "",
          "type": "address"
        }
      ],
      "stateMutability": "view",
      "type": "function"
    },
    {
      "inputs": [],
      "name": "alETHAddr",
      "outputs": [
        {
          "internalType": "address",
          "name": "",
          "type": "address"
        }
      ],
      "stateMutability": "view",
      "type": "function"
    },
    {
      "inputs": [],
      "name": "alETHToken",
      "outputs": [
        {
          "internalType": "contract IERC20",
          "name": "",
          "type": "address"
        }
      ],
      "stateMutability": "view",
      "type": "function"
    },
    {
      "inputs": [],
      "name": "checkBalance",
      "outputs": [
        {
          "internalType": "uint256",
          "name": "",
          "type": "uint256"
        }
      ],
      "stateMutability": "view",
      "type": "function"
    },
    {
      "inputs": [],
      "name": "checkCirculating",
      "outputs": [
        {
          "internalType": "uint256",
          "name": "",
          "type": "uint256"
        }
      ],
      "stateMutability": "view",
      "type": "function"
    },
    {
      "inputs": [],
      "name": "checkTestPasses",
      "outputs": [
        {
          "internalType": "bool",
          "name": "",
          "type": "bool"
        }
      ],
      "stateMutability": "view",
      "type": "function"
    },
    {
      "inputs": [],
      "name": "getTestedContracts",
      "outputs": [
        {
          "internalType": "address[]",
          "name": "",
          "type": "address[]"
        }
      ],
      "stateMutability": "view",
      "type": "function"
    },
    {
      "inputs": [],
      "name": "protocolName",
      "outputs": [
        {
          "internalType": "string",
          "name": "",
          "type": "string"
        }
      ],
      "stateMutability": "view",
      "type": "function"
    },
    {
      "inputs": [],
      "name": "testAuthor",
      "outputs": [
        {
          "internalType": "address",
          "name": "",
          "type": "address"
        }
      ],
      "stateMutability": "view",
      "type": "function"
    },
    {
      "inputs": [],
      "name": "testName",
      "outputs": [
        {
          "internalType": "string",
          "name": "",
          "type": "string"
        }
      ],
      "stateMutability": "view",
      "type": "function"
    },
    {
      "inputs": [
        {
          "internalType": "uint256",
          "name": "",
          "type": "uint256"
        }
      ],
      "name": "testedContracts",
      "outputs": [
        {
          "internalType": "address",
          "name": "",
          "type": "address"
        }
      ],
      "stateMutability": "view",
      "type": "function"
    },
    {
      "inputs": [],
      "name": "yvWETHAddr",
      "outputs": [
        {
          "internalType": "address",
          "name": "",
          "type": "address"
        }
      ],
      "stateMutability": "view",
      "type": "function"
    },
    {
      "inputs": [],
      "name": "yvWETHToken",
      "outputs": [
        {
          "internalType": "contract IERC20",
          "name": "",
          "type": "address"
        }
      ],
      "stateMutability": "view",
      "type": "function"
    }
  ],
  "bytecode": "0x6080604052730100546f2cd4c9d97f798ffc9755e47865ff7ee6600460006101000a81548173ffffffffffffffffffffffffffffffffffffffff021916908373ffffffffffffffffffffffffffffffffffffffff16021790555073c02aaa39b223fe8d0a0e5c4f27ead9083c756cc2600560006101000a81548173ffffffffffffffffffffffffffffffffffffffff021916908373ffffffffffffffffffffffffffffffffffffffff16021790555073a258c4606ca8206d8aa700ce2143d7db854d168c600660006101000a81548173ffffffffffffffffffffffffffffffffffffffff021916908373ffffffffffffffffffffffffffffffffffffffff1602179055503480156200011057600080fd5b506040518060600160405280602b815260200162001ba8602b9139336000806101000a81548173ffffffffffffffffffffffffffffffffffffffff021916908373ffffffffffffffffffffffffffffffffffffffff1602179055508060019080519060200190620001839291906200023b565b50506040518060400160405280600881526020017f416c6368656d697800000000000000000000000000000000000000000000000081525060029080519060200190620001d29291906200023b565b506040518060200160405280730100546f2cd4c9d97f798ffc9755e47865ff7ee673ffffffffffffffffffffffffffffffffffffffff1673ffffffffffffffffffffffffffffffffffffffff16815250600390600162000234929190620002cc565b50620003df565b82805462000249906200037a565b90600052602060002090601f0160209004810192826200026d5760008555620002b9565b82601f106200028857805160ff1916838001178555620002b9565b82800160010185558215620002b9579182015b82811115620002b85782518255916020019190600101906200029b565b5b509050620002c891906200035b565b5090565b82805482825590600052602060002090810192821562000348579160200282015b82811115620003475782518260006101000a81548173ffffffffffffffffffffffffffffffffffffffff021916908373ffffffffffffffffffffffffffffffffffffffff16021790555091602001919060010190620002ed565b5b5090506200035791906200035b565b5090565b5b80821115620003765760008160009055506001016200035c565b5090565b600060028204905060018216806200039357607f821691505b60208210811415620003aa57620003a9620003b0565b5b50919050565b7f4e487b7100000000000000000000000000000000000000000000000000000000600052602260045260246000fd5b6117b980620003ef6000396000f3fe608060405234801561001057600080fd5b50600436106101425760003560e01c8063af410636116100b8578063d48fe6321161007c578063d48fe63214610339578063e0b4fb9214610357578063e567e86914610375578063e56c771b14610393578063f82e0927146103b1578063fadd8e59146103cf57610142565b8063af41063614610291578063be2079a7146102af578063c71daccb146102df578063cbcd3814146102fd578063cc8668de1461031b57610142565b8063688fe4001161010a578063688fe400146101dd5780638285952a146101fb57806386d835e51461021957806391c6083614610237578063a56a287c14610255578063abdc38081461027357610142565b806328335c6a146101475780633379e2291461016557806335199ed01461018357806347a563c2146101a15780634b2f336d146101bf575b600080fd5b61014f6103ed565b60405161015c9190611471565b60405180910390f35b61016d610405565b60405161017a9190611471565b60405180910390f35b61018b61041d565b6040516101989190611506565b60405180910390f35b6101a96104f6565b6040516101b69190611471565b60405180910390f35b6101c761050e565b6040516101d491906114c9565b60405180910390f35b6101e5610534565b6040516101f291906114c9565b60405180910390f35b61020361055a565b6040516102109190611471565b60405180910390f35b610221610572565b60405161022e9190611506565b60405180910390f35b61023f61064b565b60405161024c9190611471565b60405180910390f35b61025d610663565b60405161026a91906114c9565b60405180910390f35b61027b610689565b6040516102889190611471565b60405180910390f35b6102996106a1565b6040516102a6919061148c565b60405180910390f35b6102c960048036038101906102c49190611325565b61072f565b6040516102d69190611471565b60405180910390f35b6102e761076e565b6040516102f49190611506565b60405180910390f35b610305610af2565b6040516103129190611471565b60405180910390f35b610323610b16565b60405161033091906114e4565b60405180910390f35b610341610ba4565b60405161034e9190611506565b60405180910390f35b61035f610c7d565b60405161036c91906114ae565b60405180910390f35b61037d6110c2565b60405161038a91906114e4565b60405180910390f35b61039b611150565b6040516103a89190611471565b60405180910390f35b6103b9611168565b6040516103c69190611506565b60405180910390f35b6103d7611241565b6040516103e49190611506565b60405180910390f35b730100546f2cd4c9d97f798ffc9755e47865ff7ee681565b7345f81ef5f2ae78f49851f7a62e4061ff54ff674b81565b6000670de0b6b3a7640000600660009054906101000a900473ffffffffffffffffffffffffffffffffffffffff1673ffffffffffffffffffffffffffffffffffffffff166370a0823173eba649e0010818aa4321088d34bd6162d65e79716040518263ffffffff1660e01b81526004016104979190611471565b60206040518083038186803b1580156104af57600080fd5b505afa1580156104c3573d6000803e3d6000fd5b505050506040513d601f19601f820116820180604052508101906104e7919061134e565b6104f191906115cc565b905090565b73a258c4606ca8206d8aa700ce2143d7db854d168c81565b600560009054906101000a900473ffffffffffffffffffffffffffffffffffffffff1681565b600660009054906101000a900473ffffffffffffffffffffffffffffffffffffffff1681565b736b566554378477490ab040f6f757171c967d03ab81565b6000670de0b6b3a7640000600560009054906101000a900473ffffffffffffffffffffffffffffffffffffffff1673ffffffffffffffffffffffffffffffffffffffff166370a08231736b566554378477490ab040f6f757171c967d03ab6040518263ffffffff1660e01b81526004016105ec9190611471565b60206040518083038186803b15801561060457600080fd5b505afa158015610618573d6000803e3d6000fd5b505050506040513d601f19601f8201168201806040525081019061063c919061134e565b61064691906115cc565b905090565b7354dc35eb8c2e2e20f3657af6f84cd9949c08cf3881565b600460009054906101000a900473ffffffffffffffffffffffffffffffffffffffff1681565b73c02aaa39b223fe8d0a0e5c4f27ead9083c756cc281565b6060600380548060200260200160405190810160405280929190818152602001828054801561072557602002820191906000526020600020905b8160009054906101000a900473ffffffffffffffffffffffffffffffffffffffff1673ffffffffffffffffffffffffffffffffffffffff16815260200190600101908083116106db575b5050505050905090565b6003818154811061073f57600080fd5b906000526020600020016000915054906101000a900473ffffffffffffffffffffffffffffffffffffffff1681565b600080670de0b6b3a7640000600560009054906101000a900473ffffffffffffffffffffffffffffffffffffffff1673ffffffffffffffffffffffffffffffffffffffff166370a082317345f81ef5f2ae78f49851f7a62e4061ff54ff674b6040518263ffffffff1660e01b81526004016107e99190611471565b60206040518083038186803b15801561080157600080fd5b505afa158015610815573d6000803e3d6000fd5b505050506040513d601f19601f82011682018060405250810190610839919061134e565b61084391906115cc565b90506000670de0b6b3a7640000600560009054906101000a900473ffffffffffffffffffffffffffffffffffffffff1673ffffffffffffffffffffffffffffffffffffffff166370a08231736b566554378477490ab040f6f757171c967d03ab6040518263ffffffff1660e01b81526004016108bf9190611471565b60206040518083038186803b1580156108d757600080fd5b505afa1580156108eb573d6000803e3d6000fd5b505050506040513d601f19601f8201168201806040525081019061090f919061134e565b61091991906115cc565b90506000670de0b6b3a7640000600660009054906101000a900473ffffffffffffffffffffffffffffffffffffffff1673ffffffffffffffffffffffffffffffffffffffff166370a0823173eba649e0010818aa4321088d34bd6162d65e79716040518263ffffffff1660e01b81526004016109959190611471565b60206040518083038186803b1580156109ad57600080fd5b505afa1580156109c1573d6000803e3d6000fd5b505050506040513d601f19601f820116820180604052508101906109e5919061134e565b6109ef91906115cc565b90506000670de0b6b3a7640000600660009054906101000a900473ffffffffffffffffffffffffffffffffffffffff1673ffffffffffffffffffffffffffffffffffffffff166370a082317354dc35eb8c2e2e20f3657af6f84cd9949c08cf386040518263ffffffff1660e01b8152600401610a6b9190611471565b60206040518083038186803b158015610a8357600080fd5b505afa158015610a97573d6000803e3d6000fd5b505050506040513d601f19601f82011682018060405250810190610abb919061134e565b610ac591906115cc565b905080828486610ad59190611576565b610adf9190611576565b610ae99190611576565b94505050505090565b60008054906101000a900473ffffffffffffffffffffffffffffffffffffffff1681565b60018054610b239061169c565b80601f0160208091040260200160405190810160405280929190818152602001828054610b4f9061169c565b8015610b9c5780601f10610b7157610100808354040283529160200191610b9c565b820191906000526020600020905b815481529060010190602001808311610b7f57829003601f168201915b505050505081565b6000670de0b6b3a7640000600660009054906101000a900473ffffffffffffffffffffffffffffffffffffffff1673ffffffffffffffffffffffffffffffffffffffff166370a082317354dc35eb8c2e2e20f3657af6f84cd9949c08cf386040518263ffffffff1660e01b8152600401610c1e9190611471565b60206040518083038186803b158015610c3657600080fd5b505afa158015610c4a573d6000803e3d6000fd5b505050506040513d601f19601f82011682018060405250810190610c6e919061134e565b610c7891906115cc565b905090565b600080670de0b6b3a7640000600560009054906101000a900473ffffffffffffffffffffffffffffffffffffffff1673ffffffffffffffffffffffffffffffffffffffff166370a082317345f81ef5f2ae78f49851f7a62e4061ff54ff674b6040518263ffffffff1660e01b8152600401610cf89190611471565b60206040518083038186803b158015610d1057600080fd5b505afa158015610d24573d6000803e3d6000fd5b505050506040513d601f19601f82011682018060405250810190610d48919061134e565b610d5291906115cc565b90506000670de0b6b3a7640000600560009054906101000a900473ffffffffffffffffffffffffffffffffffffffff1673ffffffffffffffffffffffffffffffffffffffff166370a08231736b566554378477490ab040f6f757171c967d03ab6040518263ffffffff1660e01b8152600401610dce9190611471565b60206040518083038186803b158015610de657600080fd5b505afa158015610dfa573d6000803e3d6000fd5b505050506040513d601f19601f82011682018060405250810190610e1e919061134e565b610e2891906115cc565b90506000670de0b6b3a7640000600660009054906101000a900473ffffffffffffffffffffffffffffffffffffffff1673ffffffffffffffffffffffffffffffffffffffff166370a0823173eba649e0010818aa4321088d34bd6162d65e79716040518263ffffffff1660e01b8152600401610ea49190611471565b60206040518083038186803b158015610ebc57600080fd5b505afa158015610ed0573d6000803e3d6000fd5b505050506040513d601f19601f82011682018060405250810190610ef4919061134e565b610efe91906115cc565b90506000670de0b6b3a7640000600660009054906101000a900473ffffffffffffffffffffffffffffffffffffffff1673ffffffffffffffffffffffffffffffffffffffff166370a082317354dc35eb8c2e2e20f3657af6f84cd9949c08cf386040518263ffffffff1660e01b8152600401610f7a9190611471565b60206040518083038186803b158015610f9257600080fd5b505afa158015610fa6573d6000803e3d6000fd5b505050506040513d601f19601f82011682018060405250810190610fca919061134e565b610fd491906115cc565b9050600081838587610fe69190611576565b610ff09190611576565b610ffa9190611576565b90506000670de0b6b3a7640000600460009054906101000a900473ffffffffffffffffffffffffffffffffffffffff1673ffffffffffffffffffffffffffffffffffffffff166318160ddd6040518163ffffffff1660e01b815260040160206040518083038186803b15801561106f57600080fd5b505afa158015611083573d6000803e3d6000fd5b505050506040513d601f19601f820116820180604052508101906110a7919061134e565b6110b191906115cc565b905081811115965050505050505090565b600280546110cf9061169c565b80601f01602080910402602001604051908101604052809291908181526020018280546110fb9061169c565b80156111485780601f1061111d57610100808354040283529160200191611148565b820191906000526020600020905b81548152906001019060200180831161112b57829003601f168201915b505050505081565b73eba649e0010818aa4321088d34bd6162d65e797181565b6000670de0b6b3a7640000600560009054906101000a900473ffffffffffffffffffffffffffffffffffffffff1673ffffffffffffffffffffffffffffffffffffffff166370a082317345f81ef5f2ae78f49851f7a62e4061ff54ff674b6040518263ffffffff1660e01b81526004016111e29190611471565b60206040518083038186803b1580156111fa57600080fd5b505afa15801561120e573d6000803e3d6000fd5b505050506040513d601f19601f82011682018060405250810190611232919061134e565b61123c91906115cc565b905090565b6000670de0b6b3a7640000600460009054906101000a900473ffffffffffffffffffffffffffffffffffffffff1673ffffffffffffffffffffffffffffffffffffffff166318160ddd6040518163ffffffff1660e01b815260040160206040518083038186803b1580156112b457600080fd5b505afa1580156112c8573d6000803e3d6000fd5b505050506040513d601f19601f820116820180604052508101906112ec919061134e565b6112f691906115cc565b905090565b60008135905061130a8161176c565b92915050565b60008151905061131f8161176c565b92915050565b60006020828403121561133757600080fd5b6000611345848285016112fb565b91505092915050565b60006020828403121561136057600080fd5b600061136e84828501611310565b91505092915050565b6000611383838361138f565b60208301905092915050565b611398816115fd565b82525050565b6113a7816115fd565b82525050565b60006113b882611531565b6113c28185611554565b93506113cd83611521565b8060005b838110156113fe5781516113e58882611377565b97506113f083611547565b9250506001810190506113d1565b5085935050505092915050565b6114148161160f565b82525050565b61142381611645565b82525050565b60006114348261153c565b61143e8185611565565b935061144e818560208601611669565b6114578161175b565b840191505092915050565b61146b8161163b565b82525050565b6000602082019050611486600083018461139e565b92915050565b600060208201905081810360008301526114a681846113ad565b905092915050565b60006020820190506114c3600083018461140b565b92915050565b60006020820190506114de600083018461141a565b92915050565b600060208201905081810360008301526114fe8184611429565b905092915050565b600060208201905061151b6000830184611462565b92915050565b6000819050602082019050919050565b600081519050919050565b600081519050919050565b6000602082019050919050565b600082825260208201905092915050565b600082825260208201905092915050565b60006115818261163b565b915061158c8361163b565b9250827fffffffffffffffffffffffffffffffffffffffffffffffffffffffffffffffff038211156115c1576115c06116ce565b5b828201905092915050565b60006115d78261163b565b91506115e28361163b565b9250826115f2576115f16116fd565b5b828204905092915050565b60006116088261161b565b9050919050565b60008115159050919050565b600073ffffffffffffffffffffffffffffffffffffffff82169050919050565b6000819050919050565b600061165082611657565b9050919050565b60006116628261161b565b9050919050565b60005b8381101561168757808201518184015260208101905061166c565b83811115611696576000848401525b50505050565b600060028204905060018216806116b457607f821691505b602082108114156116c8576116c761172c565b5b50919050565b7f4e487b7100000000000000000000000000000000000000000000000000000000600052601160045260246000fd5b7f4e487b7100000000000000000000000000000000000000000000000000000000600052601260045260246000fd5b7f4e487b7100000000000000000000000000000000000000000000000000000000600052602260045260246000fd5b6000601f19601f8301169050919050565b6117758161163b565b811461178057600080fd5b5056fea2646970667358221220409e97f9a2eb26a3e5813d050ba7bad6f258472c13ebec1b5fe55bf63e2e617264736f6c63430008000033616c55534420646f65736e27742065786365656420444149206c6f636b656420696e20416c6368656d6978",
  "linkReferences": {},
  "deployedLinkReferences": {}
}