{
  "_format": "hh-sol-artifact-1",
  "contractName": "Ante_alETHSupplyTest",
  "sourceName": "contracts/Ante_alETHSupplyTest.sol",
  "abi": [
    {
      "inputs": [],
      "stateMutability": "nonpayable",
      "type": "constructor"
    },
    {
      "inputs": [],
      "name": "LidoAddr",
      "outputs": [
        {
          "internalType": "address",
          "name": "",
          "type": "address"
        }
      ],
      "stateMutability": "view",
      "type": "function"
    },
    {
      "inputs": [],
      "name": "checkTestPasses",
      "outputs": [
        {
          "internalType": "bool",
          "name": "",
          "type": "bool"
        }
      ],
      "stateMutability": "view",
      "type": "function"
    },
    {
      "inputs": [],
      "name": "getTestedContracts",
      "outputs": [
        {
          "internalType": "address[]",
          "name": "",
          "type": "address[]"
        }
      ],
      "stateMutability": "view",
      "type": "function"
    },
    {
      "inputs": [],
      "name": "protocolName",
      "outputs": [
        {
          "internalType": "string",
          "name": "",
          "type": "string"
        }
      ],
      "stateMutability": "view",
      "type": "function"
    },
    {
      "inputs": [],
      "name": "stETHAddr",
      "outputs": [
        {
          "internalType": "address",
          "name": "",
          "type": "address"
        }
      ],
      "stateMutability": "view",
      "type": "function"
    },
    {
      "inputs": [],
      "name": "stETHToken",
      "outputs": [
        {
          "internalType": "contract IERC20",
          "name": "",
          "type": "address"
        }
      ],
      "stateMutability": "view",
      "type": "function"
    },
    {
      "inputs": [],
      "name": "testAuthor",
      "outputs": [
        {
          "internalType": "address",
          "name": "",
          "type": "address"
        }
      ],
      "stateMutability": "view",
      "type": "function"
    },
    {
      "inputs": [],
      "name": "testName",
      "outputs": [
        {
          "internalType": "string",
          "name": "",
          "type": "string"
        }
      ],
      "stateMutability": "view",
      "type": "function"
    },
    {
      "inputs": [
        {
          "internalType": "uint256",
          "name": "",
          "type": "uint256"
        }
      ],
      "name": "testedContracts",
      "outputs": [
        {
          "internalType": "address",
          "name": "",
          "type": "address"
        }
      ],
      "stateMutability": "view",
      "type": "function"
    },
    {
      "inputs": [],
      "name": "wstETHAddr",
      "outputs": [
        {
          "internalType": "address",
          "name": "",
          "type": "address"
        }
      ],
      "stateMutability": "view",
      "type": "function"
    },
    {
      "inputs": [],
      "name": "wstETHToken",
      "outputs": [
        {
          "internalType": "contract IERC20",
          "name": "",
          "type": "address"
        }
      ],
      "stateMutability": "view",
      "type": "function"
    }
  ],
  "bytecode": "0x6080604052737f39c581f595b53c5cb19bd0b3f8da6c935e2ca0600460006101000a81548173ffffffffffffffffffffffffffffffffffffffff021916908373ffffffffffffffffffffffffffffffffffffffff16021790555073ae7ab96520de3a18e5e111b5eaab095312d7fe84600560006101000a81548173ffffffffffffffffffffffffffffffffffffffff021916908373ffffffffffffffffffffffffffffffffffffffff160217905550348015620000bb57600080fd5b5060405180606001604052806027815260200162000df860279139336000806101000a81548173ffffffffffffffffffffffffffffffffffffffff021916908373ffffffffffffffffffffffffffffffffffffffff16021790555080600190805190602001906200012e929190620001e6565b50506040518060400160405280600581526020017f7374455448000000000000000000000000000000000000000000000000000000815250600290805190602001906200017d929190620001e6565b50604051806020016040528073ae7ab96520de3a18e5e111b5eaab095312d7fe8473ffffffffffffffffffffffffffffffffffffffff1673ffffffffffffffffffffffffffffffffffffffff168152506003906001620001df92919062000277565b506200038a565b828054620001f49062000325565b90600052602060002090601f01602090048101928262000218576000855562000264565b82601f106200023357805160ff191683800117855562000264565b8280016001018555821562000264579182015b828111156200026357825182559160200191906001019062000246565b5b50905062000273919062000306565b5090565b828054828255906000526020600020908101928215620002f3579160200282015b82811115620002f25782518260006101000a81548173ffffffffffffffffffffffffffffffffffffffff021916908373ffffffffffffffffffffffffffffffffffffffff1602179055509160200191906001019062000298565b5b50905062000302919062000306565b5090565b5b808211156200032157600081600090555060010162000307565b5090565b600060028204905060018216806200033e57607f821691505b602082108114156200035557620003546200035b565b5b50919050565b7f4e487b7100000000000000000000000000000000000000000000000000000000600052602260045260246000fd5b610a5e806200039a6000396000f3fe608060405234801561001057600080fd5b50600436106100a95760003560e01c8063cadd471811610071578063cadd471814610156578063cbcd381414610174578063cc8668de14610192578063e0b4fb92146101b0578063e2618bc7146101ce578063e567e869146101ec576100a9565b80636cf6021d146100ae578063aae92f1e146100cc578063af410636146100ea578063b02f595414610108578063be2079a714610126575b600080fd5b6100b661020a565b6040516100c39190610791565b60405180910390f35b6100d4610222565b6040516100e191906107e9565b60405180910390f35b6100f2610248565b6040516100ff91906107ac565b60405180910390f35b6101106102d6565b60405161011d9190610791565b60405180910390f35b610140600480360381019061013b9190610654565b6102ee565b60405161014d9190610791565b60405180910390f35b61015e61032d565b60405161016b9190610791565b60405180910390f35b61017c610345565b6040516101899190610791565b60405180910390f35b61019a610369565b6040516101a79190610804565b60405180910390f35b6101b86103f7565b6040516101c591906107ce565b60405180910390f35b6101d6610576565b6040516101e391906107e9565b60405180910390f35b6101f461059c565b6040516102019190610804565b60405180910390f35b73ae7ab96520de3a18e5e111b5eaab095312d7fe8481565b600560009054906101000a900473ffffffffffffffffffffffffffffffffffffffff1681565b606060038054806020026020016040519081016040528092919081815260200182805480156102cc57602002820191906000526020600020905b8160009054906101000a900473ffffffffffffffffffffffffffffffffffffffff1673ffffffffffffffffffffffffffffffffffffffff1681526020019060010190808311610282575b5050505050905090565b737f39c581f595b53c5cb19bd0b3f8da6c935e2ca081565b600381815481106102fe57600080fd5b906000526020600020016000915054906101000a900473ffffffffffffffffffffffffffffffffffffffff1681565b73ae7ab96520de3a18e5e111b5eaab095312d7fe8481565b60008054906101000a900473ffffffffffffffffffffffffffffffffffffffff1681565b6001805461037690610970565b80601f01602080910402602001604051908101604052809291908181526020018280546103a290610970565b80156103ef5780601f106103c4576101008083540402835291602001916103ef565b820191906000526020600020905b8154815290600101906020018083116103d257829003601f168201915b505050505081565b600073ae7ab96520de3a18e5e111b5eaab095312d7fe8473ffffffffffffffffffffffffffffffffffffffff1631600560009054906101000a900473ffffffffffffffffffffffffffffffffffffffff1673ffffffffffffffffffffffffffffffffffffffff166318160ddd6040518163ffffffff1660e01b815260040160206040518083038186803b15801561048d57600080fd5b505afa1580156104a1573d6000803e3d6000fd5b505050506040513d601f19601f820116820180604052508101906104c5919061067d565b600460009054906101000a900473ffffffffffffffffffffffffffffffffffffffff1673ffffffffffffffffffffffffffffffffffffffff166318160ddd6040518163ffffffff1660e01b815260040160206040518083038186803b15801561052d57600080fd5b505afa158015610541573d6000803e3d6000fd5b505050506040513d601f19601f82011682018060405250810190610565919061067d565b61056f919061087b565b1115905090565b600460009054906101000a900473ffffffffffffffffffffffffffffffffffffffff1681565b600280546105a990610970565b80601f01602080910402602001604051908101604052809291908181526020018280546105d590610970565b80156106225780601f106105f757610100808354040283529160200191610622565b820191906000526020600020905b81548152906001019060200180831161060557829003601f168201915b505050505081565b60008135905061063981610a11565b92915050565b60008151905061064e81610a11565b92915050565b60006020828403121561066657600080fd5b60006106748482850161062a565b91505092915050565b60006020828403121561068f57600080fd5b600061069d8482850161063f565b91505092915050565b60006106b283836106be565b60208301905092915050565b6106c7816108d1565b82525050565b6106d6816108d1565b82525050565b60006106e782610836565b6106f18185610859565b93506106fc83610826565b8060005b8381101561072d57815161071488826106a6565b975061071f8361084c565b925050600181019050610700565b5085935050505092915050565b610743816108e3565b82525050565b61075281610919565b82525050565b600061076382610841565b61076d818561086a565b935061077d81856020860161093d565b61078681610a00565b840191505092915050565b60006020820190506107a660008301846106cd565b92915050565b600060208201905081810360008301526107c681846106dc565b905092915050565b60006020820190506107e3600083018461073a565b92915050565b60006020820190506107fe6000830184610749565b92915050565b6000602082019050818103600083015261081e8184610758565b905092915050565b6000819050602082019050919050565b600081519050919050565b600081519050919050565b6000602082019050919050565b600082825260208201905092915050565b600082825260208201905092915050565b60006108868261090f565b91506108918361090f565b9250827fffffffffffffffffffffffffffffffffffffffffffffffffffffffffffffffff038211156108c6576108c56109a2565b5b828201905092915050565b60006108dc826108ef565b9050919050565b60008115159050919050565b600073ffffffffffffffffffffffffffffffffffffffff82169050919050565b6000819050919050565b60006109248261092b565b9050919050565b6000610936826108ef565b9050919050565b60005b8381101561095b578082015181840152602081019050610940565b8381111561096a576000848401525b50505050565b6000600282049050600182168061098857607f821691505b6020821081141561099c5761099b6109d1565b5b50919050565b7f4e487b7100000000000000000000000000000000000000000000000000000000600052601160045260246000fd5b7f4e487b7100000000000000000000000000000000000000000000000000000000600052602260045260246000fd5b6000601f19601f8301169050919050565b610a1a8161090f565b8114610a2557600080fd5b5056fea2646970667358221220e2e1ad5c58c58b84d4ac4556d7f9a8358514b34c12af1c996a59a20dac6f78d264736f6c63430008000033737445544820646f65736e27742065786365656420455448206c6f636b656420696e204c69646f",
  "linkReferences": {},
  "deployedLinkReferences": {}
}