{
  "_format": "hh-sol-artifact-1",
  "contractName": "AnteWBTCSupplyTest",
  "sourceName": "contracts/AnteWBTCSupplyTest.sol",
  "abi": [
    {
      "inputs": [],
      "stateMutability": "nonpayable",
      "type": "constructor"
    },
    {
      "inputs": [],
      "name": "checkTestPasses",
      "outputs": [
        {
          "internalType": "bool",
          "name": "",
          "type": "bool"
        }
      ],
      "stateMutability": "view",
      "type": "function"
    },
    {
      "inputs": [],
      "name": "getTestedContracts",
      "outputs": [
        {
          "internalType": "address[]",
          "name": "",
          "type": "address[]"
        }
      ],
      "stateMutability": "view",
      "type": "function"
    },
    {
      "inputs": [],
      "name": "protocolName",
      "outputs": [
        {
          "internalType": "string",
          "name": "",
          "type": "string"
        }
      ],
      "stateMutability": "view",
      "type": "function"
    },
    {
      "inputs": [],
      "name": "testAuthor",
      "outputs": [
        {
          "internalType": "address",
          "name": "",
          "type": "address"
        }
      ],
      "stateMutability": "view",
      "type": "function"
    },
    {
      "inputs": [],
      "name": "testName",
      "outputs": [
        {
          "internalType": "string",
          "name": "",
          "type": "string"
        }
      ],
      "stateMutability": "view",
      "type": "function"
    },
    {
      "inputs": [
        {
          "internalType": "uint256",
          "name": "",
          "type": "uint256"
        }
      ],
      "name": "testedContracts",
      "outputs": [
        {
          "internalType": "address",
          "name": "",
          "type": "address"
        }
      ],
      "stateMutability": "view",
      "type": "function"
    },
    {
      "inputs": [],
      "name": "wBTCAddr",
      "outputs": [
        {
          "internalType": "address",
          "name": "",
          "type": "address"
        }
      ],
      "stateMutability": "view",
      "type": "function"
    },
    {
      "inputs": [],
      "name": "wBTCToken",
      "outputs": [
        {
          "internalType": "contract IERC20",
          "name": "",
          "type": "address"
        }
      ],
      "stateMutability": "view",
      "type": "function"
    }
  ],
  "bytecode": "0x6080604052732260fac5e5542a773aa44fbcfedf7c193bc2c599600460006101000a81548173ffffffffffffffffffffffffffffffffffffffff021916908373ffffffffffffffffffffffffffffffffffffffff1602179055503480156200006657600080fd5b506040518060600160405280602c815260200162000b7f602c9139336000806101000a81548173ffffffffffffffffffffffffffffffffffffffff021916908373ffffffffffffffffffffffffffffffffffffffff1602179055508060019080519060200190620000d992919062000191565b50506040518060400160405280600481526020017f5742544300000000000000000000000000000000000000000000000000000000815250600290805190602001906200012892919062000191565b506040518060200160405280732260fac5e5542a773aa44fbcfedf7c193bc2c59973ffffffffffffffffffffffffffffffffffffffff1673ffffffffffffffffffffffffffffffffffffffff1681525060039060016200018a92919062000222565b5062000335565b8280546200019f90620002d0565b90600052602060002090601f016020900481019282620001c357600085556200020f565b82601f10620001de57805160ff19168380011785556200020f565b828001600101855582156200020f579182015b828111156200020e578251825591602001919060010190620001f1565b5b5090506200021e9190620002b1565b5090565b8280548282559060005260206000209081019282156200029e579160200282015b828111156200029d5782518260006101000a81548173ffffffffffffffffffffffffffffffffffffffff021916908373ffffffffffffffffffffffffffffffffffffffff1602179055509160200191906001019062000243565b5b509050620002ad9190620002b1565b5090565b5b80821115620002cc576000816000905550600101620002b2565b5090565b60006002820490506001821680620002e957607f821691505b602082108114156200030057620002ff62000306565b5b50919050565b7f4e487b7100000000000000000000000000000000000000000000000000000000600052602260045260246000fd5b61083a80620003456000396000f3fe608060405234801561001057600080fd5b50600436106100885760003560e01c8063cbcd38141161005b578063cbcd381414610117578063cc8668de14610135578063e0b4fb9214610153578063e567e8691461017157610088565b8063514a1e271461008d578063a3c78d03146100ab578063af410636146100c9578063be2079a7146100e7575b600080fd5b61009561018f565b6040516100a2919061064a565b60405180910390f35b6100b36101b5565b6040516100c091906105f2565b60405180910390f35b6100d16101cd565b6040516100de919061060d565b60405180910390f35b61010160048036038101906100fc91906104b5565b61025b565b60405161010e91906105f2565b60405180910390f35b61011f61029a565b60405161012c91906105f2565b60405180910390f35b61013d6102be565b60405161014a9190610665565b60405180910390f35b61015b61034c565b604051610168919061062f565b60405180910390f35b6101796103fd565b6040516101869190610665565b60405180910390f35b600460009054906101000a900473ffffffffffffffffffffffffffffffffffffffff1681565b732260fac5e5542a773aa44fbcfedf7c193bc2c59981565b6060600380548060200260200160405190810160405280929190818152602001828054801561025157602002820191906000526020600020905b8160009054906101000a900473ffffffffffffffffffffffffffffffffffffffff1673ffffffffffffffffffffffffffffffffffffffff1681526020019060010190808311610207575b5050505050905090565b6003818154811061026b57600080fd5b906000526020600020016000915054906101000a900473ffffffffffffffffffffffffffffffffffffffff1681565b60008054906101000a900473ffffffffffffffffffffffffffffffffffffffff1681565b600180546102cb9061077b565b80601f01602080910402602001604051908101604052809291908181526020018280546102f79061077b565b80156103445780601f1061031957610100808354040283529160200191610344565b820191906000526020600020905b81548152906001019060200180831161032757829003601f168201915b505050505081565b6000660775f05a074000600460009054906101000a900473ffffffffffffffffffffffffffffffffffffffff1673ffffffffffffffffffffffffffffffffffffffff166318160ddd6040518163ffffffff1660e01b815260040160206040518083038186803b1580156103be57600080fd5b505afa1580156103d2573d6000803e3d6000fd5b505050506040513d601f19601f820116820180604052508101906103f691906104de565b1115905090565b6002805461040a9061077b565b80601f01602080910402602001604051908101604052809291908181526020018280546104369061077b565b80156104835780601f1061045857610100808354040283529160200191610483565b820191906000526020600020905b81548152906001019060200180831161046657829003601f168201915b505050505081565b60008135905061049a816107ed565b92915050565b6000815190506104af816107ed565b92915050565b6000602082840312156104c757600080fd5b60006104d58482850161048b565b91505092915050565b6000602082840312156104f057600080fd5b60006104fe848285016104a0565b91505092915050565b6000610513838361051f565b60208301905092915050565b610528816106dc565b82525050565b610537816106dc565b82525050565b600061054882610697565b61055281856106ba565b935061055d83610687565b8060005b8381101561058e5781516105758882610507565b9750610580836106ad565b925050600181019050610561565b5085935050505092915050565b6105a4816106ee565b82525050565b6105b381610724565b82525050565b60006105c4826106a2565b6105ce81856106cb565b93506105de818560208601610748565b6105e7816107dc565b840191505092915050565b6000602082019050610607600083018461052e565b92915050565b60006020820190508181036000830152610627818461053d565b905092915050565b6000602082019050610644600083018461059b565b92915050565b600060208201905061065f60008301846105aa565b92915050565b6000602082019050818103600083015261067f81846105b9565b905092915050565b6000819050602082019050919050565b600081519050919050565b600081519050919050565b6000602082019050919050565b600082825260208201905092915050565b600082825260208201905092915050565b60006106e7826106fa565b9050919050565b60008115159050919050565b600073ffffffffffffffffffffffffffffffffffffffff82169050919050565b6000819050919050565b600061072f82610736565b9050919050565b6000610741826106fa565b9050919050565b60005b8381101561076657808201518184015260208101905061074b565b83811115610775576000848401525b50505050565b6000600282049050600182168061079357607f821691505b602082108114156107a7576107a66107ad565b5b50919050565b7f4e487b7100000000000000000000000000000000000000000000000000000000600052602260045260246000fd5b6000601f19601f8301169050919050565b6107f68161071a565b811461080157600080fd5b5056fea264697066735822122068f941520f44b5a321cec3c50a03aeacd6098726b6ab32b3b268c98ed1db153464736f6c6343000800003357726170706564204254432028574254432920737570706c7920646f65736e2774206578636565642032316d",
  "linkReferences": {},
  "deployedLinkReferences": {}
}