{
  "_format": "hh-sol-artifact-1",
  "contractName": "Ante_alUSDSupplyTest",
  "sourceName": "contracts/Ante_alUSDSupplyTest.sol",
  "abi": [
    {
      "inputs": [],
      "stateMutability": "nonpayable",
      "type": "constructor"
    },
    {
      "inputs": [],
      "name": "AlchemistAddr",
      "outputs": [
        {
          "internalType": "address",
          "name": "",
          "type": "address"
        }
      ],
      "stateMutability": "view",
      "type": "function"
    },
    {
      "inputs": [],
      "name": "AlchemistYVAAddr",
      "outputs": [
        {
          "internalType": "address",
          "name": "",
          "type": "address"
        }
      ],
      "stateMutability": "view",
      "type": "function"
    },
    {
      "inputs": [],
      "name": "CheckAlchemistVL",
      "outputs": [
        {
          "internalType": "uint256",
          "name": "",
          "type": "uint256"
        }
      ],
      "stateMutability": "view",
      "type": "function"
    },
    {
      "inputs": [],
      "name": "CheckAlchemistYVAVL",
      "outputs": [
        {
          "internalType": "uint256",
          "name": "",
          "type": "uint256"
        }
      ],
      "stateMutability": "view",
      "type": "function"
    },
    {
      "inputs": [],
      "name": "CheckTransmuterBVL",
      "outputs": [
        {
          "internalType": "uint256",
          "name": "",
          "type": "uint256"
        }
      ],
      "stateMutability": "view",
      "type": "function"
    },
    {
      "inputs": [],
      "name": "CheckTransmuterBYVAVL",
      "outputs": [
        {
          "internalType": "uint256",
          "name": "",
          "type": "uint256"
        }
      ],
      "stateMutability": "view",
      "type": "function"
    },
    {
      "inputs": [],
      "name": "CheckTransmuterVL",
      "outputs": [
        {
          "internalType": "uint256",
          "name": "",
          "type": "uint256"
        }
      ],
      "stateMutability": "view",
      "type": "function"
    },
    {
      "inputs": [],
      "name": "DAIAddr",
      "outputs": [
        {
          "internalType": "address",
          "name": "",
          "type": "address"
        }
      ],
      "stateMutability": "view",
      "type": "function"
    },
    {
      "inputs": [],
      "name": "DAIToken",
      "outputs": [
        {
          "internalType": "contract IERC20",
          "name": "",
          "type": "address"
        }
      ],
      "stateMutability": "view",
      "type": "function"
    },
    {
      "inputs": [],
      "name": "TransmuterAddr",
      "outputs": [
        {
          "internalType": "address",
          "name": "",
          "type": "address"
        }
      ],
      "stateMutability": "view",
      "type": "function"
    },
    {
      "inputs": [],
      "name": "TransmuterBAddr",
      "outputs": [
        {
          "internalType": "address",
          "name": "",
          "type": "address"
        }
      ],
      "stateMutability": "view",
      "type": "function"
    },
    {
      "inputs": [],
      "name": "TransmuterBYVAddr",
      "outputs": [
        {
          "internalType": "address",
          "name": "",
          "type": "address"
        }
      ],
      "stateMutability": "view",
      "type": "function"
    },
    {
      "inputs": [],
      "name": "alUSDAddr",
      "outputs": [
        {
          "internalType": "address",
          "name": "",
          "type": "address"
        }
      ],
      "stateMutability": "view",
      "type": "function"
    },
    {
      "inputs": [],
      "name": "alUSDToken",
      "outputs": [
        {
          "internalType": "contract IERC20",
          "name": "",
          "type": "address"
        }
      ],
      "stateMutability": "view",
      "type": "function"
    },
    {
      "inputs": [],
      "name": "checkBalance",
      "outputs": [
        {
          "internalType": "uint256",
          "name": "",
          "type": "uint256"
        }
      ],
      "stateMutability": "view",
      "type": "function"
    },
    {
      "inputs": [],
      "name": "checkCirculating",
      "outputs": [
        {
          "internalType": "uint256",
          "name": "",
          "type": "uint256"
        }
      ],
      "stateMutability": "view",
      "type": "function"
    },
    {
      "inputs": [],
      "name": "checkTestPasses",
      "outputs": [
        {
          "internalType": "bool",
          "name": "",
          "type": "bool"
        }
      ],
      "stateMutability": "view",
      "type": "function"
    },
    {
      "inputs": [],
      "name": "getTestedContracts",
      "outputs": [
        {
          "internalType": "address[]",
          "name": "",
          "type": "address[]"
        }
      ],
      "stateMutability": "view",
      "type": "function"
    },
    {
      "inputs": [],
      "name": "protocolName",
      "outputs": [
        {
          "internalType": "string",
          "name": "",
          "type": "string"
        }
      ],
      "stateMutability": "view",
      "type": "function"
    },
    {
      "inputs": [],
      "name": "testAuthor",
      "outputs": [
        {
          "internalType": "address",
          "name": "",
          "type": "address"
        }
      ],
      "stateMutability": "view",
      "type": "function"
    },
    {
      "inputs": [],
      "name": "testName",
      "outputs": [
        {
          "internalType": "string",
          "name": "",
          "type": "string"
        }
      ],
      "stateMutability": "view",
      "type": "function"
    },
    {
      "inputs": [
        {
          "internalType": "uint256",
          "name": "",
          "type": "uint256"
        }
      ],
      "name": "testedContracts",
      "outputs": [
        {
          "internalType": "address",
          "name": "",
          "type": "address"
        }
      ],
      "stateMutability": "view",
      "type": "function"
    },
    {
      "inputs": [],
      "name": "yvDAIAddr",
      "outputs": [
        {
          "internalType": "address",
          "name": "",
          "type": "address"
        }
      ],
      "stateMutability": "view",
      "type": "function"
    },
    {
      "inputs": [],
      "name": "yvDAIToken",
      "outputs": [
        {
          "internalType": "contract IERC20",
          "name": "",
          "type": "address"
        }
      ],
      "stateMutability": "view",
      "type": "function"
    }
  ],
  "bytecode": "0x6080604052736b175474e89094c44da98b954eedeac495271d0f600460006101000a81548173ffffffffffffffffffffffffffffffffffffffff021916908373ffffffffffffffffffffffffffffffffffffffff16021790555073bc6da0fe9ad5f3b0d58160288917aa56653660e9600560006101000a81548173ffffffffffffffffffffffffffffffffffffffff021916908373ffffffffffffffffffffffffffffffffffffffff1602179055507319d3364a399d251e894ac732651be8b0e4e85001600660006101000a81548173ffffffffffffffffffffffffffffffffffffffff021916908373ffffffffffffffffffffffffffffffffffffffff1602179055503480156200011057600080fd5b506040518060600160405280602b815260200162001eaf602b9139336000806101000a81548173ffffffffffffffffffffffffffffffffffffffff021916908373ffffffffffffffffffffffffffffffffffffffff1602179055508060019080519060200190620001839291906200023b565b50506040518060400160405280600881526020017f416c6368656d697800000000000000000000000000000000000000000000000081525060029080519060200190620001d29291906200023b565b50604051806020016040528073bc6da0fe9ad5f3b0d58160288917aa56653660e973ffffffffffffffffffffffffffffffffffffffff1673ffffffffffffffffffffffffffffffffffffffff16815250600390600162000234929190620002cc565b50620003df565b82805462000249906200037a565b90600052602060002090601f0160209004810192826200026d5760008555620002b9565b82601f106200028857805160ff1916838001178555620002b9565b82800160010185558215620002b9579182015b82811115620002b85782518255916020019190600101906200029b565b5b509050620002c891906200035b565b5090565b82805482825590600052602060002090810192821562000348579160200282015b82811115620003475782518260006101000a81548173ffffffffffffffffffffffffffffffffffffffff021916908373ffffffffffffffffffffffffffffffffffffffff16021790555091602001919060010190620002ed565b5b5090506200035791906200035b565b5090565b5b80821115620003765760008160009055506001016200035c565b5090565b600060028204905060018216806200039357607f821691505b60208210811415620003aa57620003a9620003b0565b5b50919050565b7f4e487b7100000000000000000000000000000000000000000000000000000000600052602260045260246000fd5b611ac080620003ef6000396000f3fe608060405234801561001057600080fd5b50600436106101585760003560e01c806395921e4b116100c3578063d48fe6321161007c578063d48fe6321461038b578063e0b4fb92146103a9578063e567e869146103c7578063e56c771b146103e5578063f82e092714610403578063fadd8e591461042157610158565b806395921e4b146102c5578063af410636146102e3578063be2079a714610301578063c71daccb14610331578063cbcd38141461034f578063cc8668de1461036d57610158565b8063512a9ff411610115578063512a9ff4146102115780635241edb21461022f57806354f5e7731461024d578063701bfe131461026b5780638285952a1461028957806386d835e5146102a757610158565b8063143178af1461015d57806326cdc9091461017b5780632abf8cbe146101995780633379e229146101b757806335199ed0146101d55780634700ab0f146101f3575b600080fd5b61016561043f565b6040516101729190611778565b60405180910390f35b610183610457565b60405161019091906117d0565b60405180910390f35b6101a161047d565b6040516101ae9190611778565b60405180910390f35b6101bf610495565b6040516101cc9190611778565b60405180910390f35b6101dd6104ad565b6040516101ea919061180d565b60405180910390f35b6101fb610586565b6040516102089190611778565b60405180910390f35b61021961059e565b60405161022691906117d0565b60405180910390f35b6102376105c4565b6040516102449190611778565b60405180910390f35b6102556105dc565b6040516102629190611778565b60405180910390f35b6102736105f4565b60405161028091906117d0565b60405180910390f35b61029161061a565b60405161029e9190611778565b60405180910390f35b6102af610632565b6040516102bc919061180d565b60405180910390f35b6102cd61070b565b6040516102da919061180d565b60405180910390f35b6102eb6107e4565b6040516102f89190611793565b60405180910390f35b61031b6004803603810190610316919061162c565b610872565b6040516103289190611778565b60405180910390f35b6103396108b1565b604051610346919061180d565b60405180910390f35b610357610d17565b6040516103649190611778565b60405180910390f35b610375610d3b565b60405161038291906117eb565b60405180910390f35b610393610dc9565b6040516103a0919061180d565b60405180910390f35b6103b1610ea2565b6040516103be91906117b5565b60405180910390f35b6103cf6113c9565b6040516103dc91906117eb565b60405180910390f35b6103ed611457565b6040516103fa9190611778565b60405180910390f35b61040b61146f565b604051610418919061180d565b60405180910390f35b610429611548565b604051610436919061180d565b60405180910390f35b736b175474e89094c44da98b954eedeac495271d0f81565b600460009054906101000a900473ffffffffffffffffffffffffffffffffffffffff1681565b73f3cffaeea177db444b68fb6f033d4a82f6d8c82d81565b73ab7a49b971afdc7ee26255038c82b4006d12208681565b6000670de0b6b3a7640000600660009054906101000a900473ffffffffffffffffffffffffffffffffffffffff1673ffffffffffffffffffffffffffffffffffffffff166370a0823173014de182c147f8663589d77eadb109bf86958f136040518263ffffffff1660e01b81526004016105279190611778565b60206040518083038186803b15801561053f57600080fd5b505afa158015610553573d6000803e3d6000fd5b505050506040513d601f19601f820116820180604052508101906105779190611655565b61058191906118d3565b905090565b7319d3364a399d251e894ac732651be8b0e4e8500181565b600560009054906101000a900473ffffffffffffffffffffffffffffffffffffffff1681565b73bc6da0fe9ad5f3b0d58160288917aa56653660e981565b73491eafc47d019b44e13ef7cc649bba51e15c61d781565b600660009054906101000a900473ffffffffffffffffffffffffffffffffffffffff1681565b73c21d353ff4ee73c572425697f4f5aad2109fe35b81565b6000670de0b6b3a7640000600460009054906101000a900473ffffffffffffffffffffffffffffffffffffffff1673ffffffffffffffffffffffffffffffffffffffff166370a0823173c21d353ff4ee73c572425697f4f5aad2109fe35b6040518263ffffffff1660e01b81526004016106ac9190611778565b60206040518083038186803b1580156106c457600080fd5b505afa1580156106d8573d6000803e3d6000fd5b505050506040513d601f19601f820116820180604052508101906106fc9190611655565b61070691906118d3565b905090565b6000670de0b6b3a7640000600460009054906101000a900473ffffffffffffffffffffffffffffffffffffffff1673ffffffffffffffffffffffffffffffffffffffff166370a0823173f3cffaeea177db444b68fb6f033d4a82f6d8c82d6040518263ffffffff1660e01b81526004016107859190611778565b60206040518083038186803b15801561079d57600080fd5b505afa1580156107b1573d6000803e3d6000fd5b505050506040513d601f19601f820116820180604052508101906107d59190611655565b6107df91906118d3565b905090565b6060600380548060200260200160405190810160405280929190818152602001828054801561086857602002820191906000526020600020905b8160009054906101000a900473ffffffffffffffffffffffffffffffffffffffff1673ffffffffffffffffffffffffffffffffffffffff168152602001906001019080831161081e575b5050505050905090565b6003818154811061088257600080fd5b906000526020600020016000915054906101000a900473ffffffffffffffffffffffffffffffffffffffff1681565b600080670de0b6b3a7640000600460009054906101000a900473ffffffffffffffffffffffffffffffffffffffff1673ffffffffffffffffffffffffffffffffffffffff166370a0823173ab7a49b971afdc7ee26255038c82b4006d1220866040518263ffffffff1660e01b815260040161092c9190611778565b60206040518083038186803b15801561094457600080fd5b505afa158015610958573d6000803e3d6000fd5b505050506040513d601f19601f8201168201806040525081019061097c9190611655565b61098691906118d3565b90506000670de0b6b3a7640000600460009054906101000a900473ffffffffffffffffffffffffffffffffffffffff1673ffffffffffffffffffffffffffffffffffffffff166370a0823173c21d353ff4ee73c572425697f4f5aad2109fe35b6040518263ffffffff1660e01b8152600401610a029190611778565b60206040518083038186803b158015610a1a57600080fd5b505afa158015610a2e573d6000803e3d6000fd5b505050506040513d601f19601f82011682018060405250810190610a529190611655565b610a5c91906118d3565b90506000670de0b6b3a7640000600460009054906101000a900473ffffffffffffffffffffffffffffffffffffffff1673ffffffffffffffffffffffffffffffffffffffff166370a0823173f3cffaeea177db444b68fb6f033d4a82f6d8c82d6040518263ffffffff1660e01b8152600401610ad89190611778565b60206040518083038186803b158015610af057600080fd5b505afa158015610b04573d6000803e3d6000fd5b505050506040513d601f19601f82011682018060405250810190610b289190611655565b610b3291906118d3565b90506000670de0b6b3a7640000600660009054906101000a900473ffffffffffffffffffffffffffffffffffffffff1673ffffffffffffffffffffffffffffffffffffffff166370a0823173014de182c147f8663589d77eadb109bf86958f136040518263ffffffff1660e01b8152600401610bae9190611778565b60206040518083038186803b158015610bc657600080fd5b505afa158015610bda573d6000803e3d6000fd5b505050506040513d601f19601f82011682018060405250810190610bfe9190611655565b610c0891906118d3565b90506000670de0b6b3a7640000600660009054906101000a900473ffffffffffffffffffffffffffffffffffffffff1673ffffffffffffffffffffffffffffffffffffffff166370a0823173491eafc47d019b44e13ef7cc649bba51e15c61d76040518263ffffffff1660e01b8152600401610c849190611778565b60206040518083038186803b158015610c9c57600080fd5b505afa158015610cb0573d6000803e3d6000fd5b505050506040513d601f19601f82011682018060405250810190610cd49190611655565b610cde91906118d3565b90508082848688610cef919061187d565b610cf9919061187d565b610d03919061187d565b610d0d919061187d565b9550505050505090565b60008054906101000a900473ffffffffffffffffffffffffffffffffffffffff1681565b60018054610d48906119a3565b80601f0160208091040260200160405190810160405280929190818152602001828054610d74906119a3565b8015610dc15780601f10610d9657610100808354040283529160200191610dc1565b820191906000526020600020905b815481529060010190602001808311610da457829003601f168201915b505050505081565b6000670de0b6b3a7640000600660009054906101000a900473ffffffffffffffffffffffffffffffffffffffff1673ffffffffffffffffffffffffffffffffffffffff166370a0823173491eafc47d019b44e13ef7cc649bba51e15c61d76040518263ffffffff1660e01b8152600401610e439190611778565b60206040518083038186803b158015610e5b57600080fd5b505afa158015610e6f573d6000803e3d6000fd5b505050506040513d601f19601f82011682018060405250810190610e939190611655565b610e9d91906118d3565b905090565b600080670de0b6b3a7640000600460009054906101000a900473ffffffffffffffffffffffffffffffffffffffff1673ffffffffffffffffffffffffffffffffffffffff166370a0823173ab7a49b971afdc7ee26255038c82b4006d1220866040518263ffffffff1660e01b8152600401610f1d9190611778565b60206040518083038186803b158015610f3557600080fd5b505afa158015610f49573d6000803e3d6000fd5b505050506040513d601f19601f82011682018060405250810190610f6d9190611655565b610f7791906118d3565b90506000670de0b6b3a7640000600460009054906101000a900473ffffffffffffffffffffffffffffffffffffffff1673ffffffffffffffffffffffffffffffffffffffff166370a0823173c21d353ff4ee73c572425697f4f5aad2109fe35b6040518263ffffffff1660e01b8152600401610ff39190611778565b60206040518083038186803b15801561100b57600080fd5b505afa15801561101f573d6000803e3d6000fd5b505050506040513d601f19601f820116820180604052508101906110439190611655565b61104d91906118d3565b90506000670de0b6b3a7640000600460009054906101000a900473ffffffffffffffffffffffffffffffffffffffff1673ffffffffffffffffffffffffffffffffffffffff166370a0823173f3cffaeea177db444b68fb6f033d4a82f6d8c82d6040518263ffffffff1660e01b81526004016110c99190611778565b60206040518083038186803b1580156110e157600080fd5b505afa1580156110f5573d6000803e3d6000fd5b505050506040513d601f19601f820116820180604052508101906111199190611655565b61112391906118d3565b90506000670de0b6b3a7640000600660009054906101000a900473ffffffffffffffffffffffffffffffffffffffff1673ffffffffffffffffffffffffffffffffffffffff166370a0823173014de182c147f8663589d77eadb109bf86958f136040518263ffffffff1660e01b815260040161119f9190611778565b60206040518083038186803b1580156111b757600080fd5b505afa1580156111cb573d6000803e3d6000fd5b505050506040513d601f19601f820116820180604052508101906111ef9190611655565b6111f991906118d3565b90506000670de0b6b3a7640000600660009054906101000a900473ffffffffffffffffffffffffffffffffffffffff1673ffffffffffffffffffffffffffffffffffffffff166370a0823173491eafc47d019b44e13ef7cc649bba51e15c61d76040518263ffffffff1660e01b81526004016112759190611778565b60206040518083038186803b15801561128d57600080fd5b505afa1580156112a1573d6000803e3d6000fd5b505050506040513d601f19601f820116820180604052508101906112c59190611655565b6112cf91906118d3565b9050600081838587896112e2919061187d565b6112ec919061187d565b6112f6919061187d565b611300919061187d565b90506000670de0b6b3a7640000600560009054906101000a900473ffffffffffffffffffffffffffffffffffffffff1673ffffffffffffffffffffffffffffffffffffffff166318160ddd6040518163ffffffff1660e01b815260040160206040518083038186803b15801561137557600080fd5b505afa158015611389573d6000803e3d6000fd5b505050506040513d601f19601f820116820180604052508101906113ad9190611655565b6113b791906118d3565b90508181111597505050505050505090565b600280546113d6906119a3565b80601f0160208091040260200160405190810160405280929190818152602001828054611402906119a3565b801561144f5780601f106114245761010080835404028352916020019161144f565b820191906000526020600020905b81548152906001019060200180831161143257829003601f168201915b505050505081565b73014de182c147f8663589d77eadb109bf86958f1381565b6000670de0b6b3a7640000600460009054906101000a900473ffffffffffffffffffffffffffffffffffffffff1673ffffffffffffffffffffffffffffffffffffffff166370a0823173ab7a49b971afdc7ee26255038c82b4006d1220866040518263ffffffff1660e01b81526004016114e99190611778565b60206040518083038186803b15801561150157600080fd5b505afa158015611515573d6000803e3d6000fd5b505050506040513d601f19601f820116820180604052508101906115399190611655565b61154391906118d3565b905090565b6000670de0b6b3a7640000600560009054906101000a900473ffffffffffffffffffffffffffffffffffffffff1673ffffffffffffffffffffffffffffffffffffffff166318160ddd6040518163ffffffff1660e01b815260040160206040518083038186803b1580156115bb57600080fd5b505afa1580156115cf573d6000803e3d6000fd5b505050506040513d601f19601f820116820180604052508101906115f39190611655565b6115fd91906118d3565b905090565b60008135905061161181611a73565b92915050565b60008151905061162681611a73565b92915050565b60006020828403121561163e57600080fd5b600061164c84828501611602565b91505092915050565b60006020828403121561166757600080fd5b600061167584828501611617565b91505092915050565b600061168a8383611696565b60208301905092915050565b61169f81611904565b82525050565b6116ae81611904565b82525050565b60006116bf82611838565b6116c9818561185b565b93506116d483611828565b8060005b838110156117055781516116ec888261167e565b97506116f78361184e565b9250506001810190506116d8565b5085935050505092915050565b61171b81611916565b82525050565b61172a8161194c565b82525050565b600061173b82611843565b611745818561186c565b9350611755818560208601611970565b61175e81611a62565b840191505092915050565b61177281611942565b82525050565b600060208201905061178d60008301846116a5565b92915050565b600060208201905081810360008301526117ad81846116b4565b905092915050565b60006020820190506117ca6000830184611712565b92915050565b60006020820190506117e56000830184611721565b92915050565b600060208201905081810360008301526118058184611730565b905092915050565b60006020820190506118226000830184611769565b92915050565b6000819050602082019050919050565b600081519050919050565b600081519050919050565b6000602082019050919050565b600082825260208201905092915050565b600082825260208201905092915050565b600061188882611942565b915061189383611942565b9250827fffffffffffffffffffffffffffffffffffffffffffffffffffffffffffffffff038211156118c8576118c76119d5565b5b828201905092915050565b60006118de82611942565b91506118e983611942565b9250826118f9576118f8611a04565b5b828204905092915050565b600061190f82611922565b9050919050565b60008115159050919050565b600073ffffffffffffffffffffffffffffffffffffffff82169050919050565b6000819050919050565b60006119578261195e565b9050919050565b600061196982611922565b9050919050565b60005b8381101561198e578082015181840152602081019050611973565b8381111561199d576000848401525b50505050565b600060028204905060018216806119bb57607f821691505b602082108114156119cf576119ce611a33565b5b50919050565b7f4e487b7100000000000000000000000000000000000000000000000000000000600052601160045260246000fd5b7f4e487b7100000000000000000000000000000000000000000000000000000000600052601260045260246000fd5b7f4e487b7100000000000000000000000000000000000000000000000000000000600052602260045260246000fd5b6000601f19601f8301169050919050565b611a7c81611942565b8114611a8757600080fd5b5056fea2646970667358221220f46635ae695473ee4cfe1523da88bc6fa0d2a69ff7e4dd989953d27a8889cdce64736f6c63430008000033616c55534420646f65736e27742065786365656420444149206c6f636b656420696e20416c6368656d6978",
  "linkReferences": {},
  "deployedLinkReferences": {}
}